:100000000C9435000C945D000C945D000C945D0024
:100010000C945D000C945D000C945D000C945D00EC
:100020000C945D000C945D000C945D000C945D00DC
:100030000C945D000C945D000C945D000C945D00CC
:100040000C9445040C945D000C9422050C947005EE
:100050000C945D000C945D000C945D000C945D00AC
:100060000C945D000C945D00DE0611241FBECFEFE2
:10007000D8E0DEBFCDBF11E0A0E0B1E0E0E5F2E105
:1000800002C005900D92A83CB107D9F713E0A8EC87
:10009000B1E001C01D92A334B107E1F710E0CAE658
:1000A000D0E004C02297FE010E94EB08C836D107B9
:1000B000C9F70E9434070C9426090C940000AEE0A6
:1000C000B0E0E5E6F0E00C94FD080D891E8986E0BD
:1000D0008C831A8309838FEF9FE79E838D839E0114
:1000E000275E3F4FCE0101966F89788DA9010E944E
:1000F00083002F813885020F131FF80110822E967E
:10010000E4E00C941909ABE0B0E0E9E8F0E00C940D
:10011000EF083C012B015A01FC01178216828381F2
:1001200081FD03C06FEF7FEFC6C19AE0892E1E01EB
:100130000894211C311CF3012381F20123FD8591D8
:1001400023FF81912F01882309F4B2C1853239F44C
:1001500023FD859123FF81912F01853229F490E0C1
:10016000B3010E947602E7CF982FFF24EE24992452
:10017000FFE1FF15D0F09B3269F09C3228F49032F9
:1001800059F0933291F40EC09D3249F0903369F4E6
:1001900041E024C052E0F52A84E0F82A28C098E023
:1001A000F92A25C0E0E1FE2A22C0F7FC29C0892FE8
:1001B00080538A3070F4F6FE05C0989C902C112470
:1001C000980E15C0E89CE02C1124E80EF0E2FF2AFE
:1001D0000EC09E3229F4F6FC6BC140E4F42A07C03D
:1001E0009C3619F450E8F52A02C0983649F4F20119
:1001F00023FD959123FF91912F01992309F0B8CF09
:10020000892F8554833018F08052833038F444E0CD
:1002100050E0A40EB51E5FE359830FC0933631F052
:10022000933779F0933509F056C020C0F5018081ED
:10023000898342E050E0A40EB51E610101E010E0A8
:1002400012C0F501C080D180F6FC03C06FEF7FEFD4
:1002500002C0692D70E042E050E0A40EB51EC60158
:100260000E946B028C015FE7F52214C0F501C0808B
:10027000D180F6FC03C06FEF7FEF02C0692D70E004
:1002800042E050E0A40EB51EC6010E9460028C013F
:1002900050E8F52AF3FE07C01AC080E290E0B301EF
:1002A0000E947602EA948E2D90E008171907A8F3B1
:1002B0000EC0F601F7FC8591F7FE81916F0190E089
:1002C000B3010E947602E110EA940150104001153A
:1002D000110579F7EAC0943611F0993669F5F7FE01
:1002E00008C0F501208131814281538184E090E092
:1002F0000AC0F501808191819C01442737FD40951A
:10030000542F82E090E0A80EB91E9FE6F92257FF15
:1003100009C050954095309521953F4F4F4F5F4F05
:10032000E0E8FE2ACA01B901A1012AE030E00E94FA
:10033000A202D82ED21840C0953729F41F2D1F7E57
:100340002AE030E01DC01F2D197F9F3661F09037E5
:1003500020F4983509F0ACC00FC0903739F09837C9
:1003600009F0A6C004C028E030E00AC0106114FD06
:10037000146020E130E004C014FD166020E132E09A
:1003800017FF08C0F501608171818281938144E08B
:1003900050E008C0F50180819181BC0180E090E0CF
:1003A00042E050E0A40EB51EA1010E94A202D82E88
:1003B000D2188FE7F82EF122F6FE0BC05EEFF52281
:1003C000D91438F4F4FE07C0F2FC05C08FEEF82211
:1003D00002C01D2D01C0192DF4FE0DC0FE01ED0D52
:1003E000F11D8081803319F499EEF92208C01F5F56
:1003F000F2FE05C003C08F2D867809F01F5F0F2D18
:10040000F3FC14C0F0FE0FC01E1510F09D2C0BC0A5
:100410009D2C9E0C911A1E2D06C080E290E0B30127
:100420000E9476021F5F1E15C0F304C01E1510F453
:10043000E11A01C0EE2404FF0FC080E390E0B30195
:100440000E94760202FF1DC001FD03C088E790E014
:100450000EC088E590E00BC0802F867891F001FFF8
:1004600002C08BE201C080E2F7FC8DE290E0B301B4
:100470000E94760206C080E390E0B3010E947602FB
:100480009A94D914C0F3DA94F101ED0DF11D808135
:1004900090E0B3010E947602DD20A9F706C080E259
:1004A00090E0B3010E947602EA94EE20C1F743CEB9
:1004B000F30166817781CB012B96E2E10C940B0965
:1004C000FC010590615070400110D8F7809590951F
:1004D0008E0F9F1F0895FC01615070400190011024
:1004E000D8F7809590958E0F9F1F08950F931F93B7
:1004F000CF93DF938C01EB018B8181FF1BC082FFC7
:100500000DC02E813F818C819D812817390764F4AD
:10051000E881F9810193F983E88306C0E885F985CC
:10052000802F0995892B31F48E819F8101969F83BD
:100530008E8302C00FEF1FEFC801DF91CF911F9193
:100540000F910895FA01AA27283051F1203181F145
:10055000E8946F936E7F6E5F7F4F8F4F9F4FAF4FCB
:10056000B1E03ED0B4E03CD0670F781F891F9A1FDE
:10057000A11D680F791F8A1F911DA11D6A0F711D92
:10058000811D911DA11D20D009F468943F912AE09E
:10059000269F11243019305D3193DEF6CF01089586
:1005A000462F4770405D4193B3E00FD0C9F7F6CFB7
:1005B000462F4F70405D4A3318F0495D31FD40527F
:1005C000419302D0A9F7EACFB4E0A6959795879515
:1005D00077956795BA95C9F70097610571050895F4
:1005E0009B01AC010A2E06945795479537952795A0
:1005F000BA95C9F7620F731F841F951FA01D089538
:1006000068E873E180E090E00E948D040895CF9245
:10061000DF92EF92FF920F931F93DF93CF93CDB7AB
:10062000DEB7E2970FB6F894DEBF0FBECDBF81E212
:1006300093E040E855E260E070E00E94AB0581E2A3
:1006400093E00E94DC068823D1F381E293E060E02E
:1006500071E00E94950800E010E081E293E062E121
:1006600071E00E94920881E293E0B8014AE050E014
:100670000E947F0881E293E068E171E00E949208A5
:10068000F999FECF12BD01BDF89A60B581E293E001
:100690004AE050E00E942D0881E293E00E946D073D
:1006A0000F5F1F4F05301105C1F6F999FECF85E0A8
:1006B00090E092BD81BDF89AC0B4F999FECF86E072
:1006C00090E092BD81BDF89AD0B481E293E06AE1F6
:1006D00071E00E94920881E293E0B6014AE050E0A6
:1006E0000E941C0881E293E00E946D07FE01319692
:1006F0002AE030E0F999FECF32BD21BDF89A80B5ED
:1007000080832F5F3F4F8A3099F4108281E293E01B
:1007100060E271E00E94920881E293E08E010F5F37
:100720001F4FB8010E949508F80124E130E002C093
:100730003196E0CFF999FECF32BD21BDF89A80B550
:1007400080832F5F3F4F8A3099F4108281E293E0DB
:1007500064E271E00E94920881E293E08E010F5FF3
:100760001F4FB8010E949508F80128E230E002C04E
:100770003196E0CFF999FECF32BD21BDF89A80B510
:1007800080832F5F3F4F8A3099F4108281E293E09B
:1007900062E371E00E94920881E293E08E010F5FB4
:1007A0001F4FB8010E949508F8012CE330E002C009
:1007B0003196E0CFF999FECF32BD21BDF89A80B5D0
:1007C00080832F5F3F4F8A3009F05DC0108281E245
:1007D00093E06FE371E00E94920881E293E07E0172
:1007E0000894E11CF11CB7010E9495088DB79EB7D3
:1007F00042970FB6F8949EBF0FBE8DBFEDB7FEB700
:10080000319608EC11E0ADB7BEB712961C930E936B
:1008100011978CE491E0938382838091B301848368
:1008200015828091B401868317828091B5018087FB
:1008300011868091B601828713868091B7018487E3
:100840001586C686D786F18AE08A0E945F008DB73A
:100850009EB742960FB6F8949EBF0FBE8DBF81E241
:1008600093E0B8010E949508E2960FB6F894DEBFB7
:100870000FBECDBFCF91DF911F910F91FF90EF90F1
:10088000DF90CF900895319695CF1F920F920FB6BB
:100890000F9211242F933F938F939F93AF93BF9306
:1008A0008091940290919502A0919602B091970246
:1008B000309198020196A11DB11D232F2D5F2D3778
:1008C00020F02D570196A11DB11D20939802809311
:1008D000940290939502A0939602B0939702809110
:1008E000900290919102A0919202B0919302019690
:1008F000A11DB11D8093900290939102A09392024A
:10090000B0939302BF91AF919F918F913F912F919F
:100910000F900FBE0F901F9018959B01AC017FB7F1
:10092000F8948091900290919102A0919202B091DE
:10093000930266B5A89B05C06F3F19F00196A11DF3
:10094000B11D7FBFBA2FA92F982F8827860F911D21
:10095000A11DB11D62E0880F991FAA1FBB1F6A95D8
:10096000D1F7BC012DC0FFB7F8948091900290910F
:100970009102A0919202B0919302E6B5A89B05C0A6
:10098000EF3F19F00196A11DB11DFFBFBA2FA92F8E
:10099000982F88278E0F911DA11DB11DE2E0880FB1
:1009A000991FAA1FBB1FEA95D1F7861B970B885E7C
:1009B0009340C8F2215030404040504068517C4F35
:1009C000211531054105510571F60895789484B5D6
:1009D000826084BD84B5816084BD85B5826085BD3B
:1009E00085B5816085BDEEE6F0E080818160808321
:1009F000E1E8F0E010828081826080838081816004
:100A00008083E0E8F0E0808181608083E1EBF0E0CA
:100A1000808184608083E0EBF0E08081816080836E
:100A2000EAE7F0E080818460808380818260808357
:100A30008081816080838081806880831092C10082
:100A4000089508951F920F920FB60F9211242F93BD
:100A50003F934F938F939F93EF93FF938091C000A9
:100A600082FD1DC04091C6002091D9023091DA026A
:100A70002F5F3F4F2F7330708091DB029091DC022B
:100A80002817390771F0E091D902F091DA02E756A0
:100A9000FD4F40833093DA022093D90202C0809147
:100AA000C600FF91EF919F918F914F913F912F91B0
:100AB0000F900FBE0F901F901895E0912D03F091AD
:100AC0002E03E05CFF4F8191919120813181821B47
:100AD000930B8F739070892B11F00E94210508955C
:100AE0001F920F920FB60F9211242F933F938F9363
:100AF0009F93EF93FF9320911D0330911E038091EC
:100B00001F03909120032817390731F48091C10009
:100B10008F7D8093C10014C0E0911F03F0912003EA
:100B2000E352FD4F208180911F0390912003019695
:100B30008F7390709093200380931F032093C600BF
:100B4000FF91EF919F918F913F912F910F900FBE49
:100B50000F901F901895AF92BF92DF92EF92FF9285
:100B60000F931F93CF93DF93EC017A018B01DD2468
:100B7000403081EE580780E0680780E0780711F088
:100B8000DD24D39491E0A92EB12CEC89FD89DD20E0
:100B900069F0C50108A002C0880F991F0A94E2F706
:100BA000808360E079E08DE390E005C0108260E82A
:100BB00074E88EE190E0A80197010E94C7082150D7
:100BC000304040405040569547953795279580E1F5
:100BD0002030380720F0DD2011F0DD24D6CFE88961
:100BE000F9893083EA89FB89208319A2EE89FF897C
:100BF000408121E030E0C9010C8C02C0880F991FB0
:100C00000A94E2F7482B4083EE89FF894081C901AD
:100C10000D8C02C0880F991F0A94E2F7482B40837D
:100C2000EE89FF894081C9010E8C02C0880F991F8F
:100C30000A94E2F7482B4083EE89FF8980810F8C6C
:100C400002C0220F331F0A94E2F720952823208345
:100C5000DF91CF911F910F91FF90EF90DF90BF90A8
:100C6000AF900895DC011C96ED91FC911D97E05C1E
:100C7000FF4F2191319180819181281B390B2F7376
:100C80003070C9010895DC011C96ED91FC911D970F
:100C9000E05CFF4F20813181E054F040DF01AE5B2A
:100CA000BF4F8D919C9111972817390719F42FEF99
:100CB0003FEF07C08D919C91E80FF91F8081282F8D
:100CC00030E0C9010895DC011C96ED91FC911D975F
:100CD000E05CFF4F20813181E054F040DF01AE5BEA
:100CE000BF4F8D919C9111972817390719F42FEF59
:100CF0003FEF10C08D919C911197E80FF91F208153
:100D00008D919C91119701968F73907011969C9381
:100D10008E9330E0C9010895DC0191968C919197F2
:100D2000882339F05496ED91FC915597808186FF88
:100D3000F9CF91961C920895CF93DF93EC01EE8545
:100D4000FF85E05CFF4F20813181E054F0402F5F50
:100D50003F4F2F733070DF01AE5BBF4F8D919C9181
:100D6000119728173907D1F3E05CFF4F80819181FB
:100D7000E054F040E80FF91F6083EE85FF85E05CEA
:100D8000FF4F31832083EE89FF89208181E090E04D
:100D90000F8C02C0880F991F0A94E2F7282B20833A
:100DA00081E089A3EC89FD8980818064808381E072
:100DB00090E0DF91CF91089581E00895109224038F
:100DC0001092230388EE93E0A0E0B0E08093250327
:100DD00090932603A0932703B09328038CEB91E014
:100DE000909322038093210389E992E090932E034C
:100DF00080932D038DED92E09093300380932F0329
:100E000085EC90E0909332038093310384EC90E082
:100E1000909334038093330380EC90E090933603F7
:100E20008093350381EC90E09093380380933703EF
:100E300082EC90E090933A038093390386EC90E043
:100E400090933C0380933B0384E080933D0383E0D5
:100E500080933E0387E080933F0385E080934003C7
:100E600081E0809341030895CF93DF930E94E604CD
:100E70000E940703CDE5D5E00E9400032097E1F32F
:100E80000E945D05F9CFCF92DF92EF92FF920F9310
:100E90001F93CF93DF937C016B018A01C0E0D0E008
:100EA0000FC0D6016D916D01D701ED91FC910190BC
:100EB000F081E02DC7010995C80FD91F01501040DE
:100EC0000115110571F7CE01DF91CF911F910F919F
:100ED000FF90EF90DF90CF900895EF92FF920F93E5
:100EE0001F938C01DC01ED91FC910190F081E02DCC
:100EF0006DE009957C01D801ED91FC910190F081A4
:100F0000E02DC8016AE009959C012E0D3F1DC90125
:100F10001F910F91FF90EF900895CF93DF93EC0115
:100F20006115710519F420E030E00FC0DB010D9070
:100F30000020E9F71197A61BB70BE881F981028021
:100F4000F381E02DAD0109959C01C901DF91CF919D
:100F500008954F925F927F928F929F92AF92BF922D
:100F6000CF92DF92EF92FF920F931F93DF93CF9375
:100F7000CDB7DEB7A1970FB6F894DEBF0FBECDBFD9
:100F80002C01742ECB01223008F42AE019A231E2A0
:100F9000C32ED12CCC0EDD1E822E9924AA24BB2474
:100FA000672D752FA50194010E94C70879018A0158
:100FB000C801B701A50194010E94A808472D461B4E
:100FC0000894C108D1084A3014F4405D01C0495C5E
:100FD000F6014083E114F1040105110521F07E2C96
:100FE0005F2DC801DDCFC201B6010E948D07A19619
:100FF0000FB6F894DEBF0FBECDBFCF91DF911F912A
:101000000F91FF90EF90DF90CF90BF90AF909F90A7
:101010008F907F905F904F900895DC0121153105EE
:1010200041F4ED91FC910190F081E02D642F099540
:1010300008950E94A9070895EF92FF920F931F93BE
:101040009A017B0100E010E0B801A7010E940D08A1
:101050001F910F91FF90EF900895EF92FF920F93E1
:101060001F939A01E62EFF2400E010E0B801A701CB
:101070000E940D081F910F91FF90EF900895CF925D
:10108000DF92EF92FF920F931F93CF93DF93EC01C8
:101090006A017B012115310541F4E881F981019054
:1010A000F081E02D642F09951FC02A303105D1F45D
:1010B00077FF17C0E881F9810190F081E02D6DE2A2
:1010C00009958C0144275527BA014C195D096E0911
:1010D0007F09CE012AE00E94A9079801280F391F35
:1010E00004C02AE00E94A9079C01C901DF91CF91A9
:1010F0001F910F91FF90EF90DF90CF900895EF92A6
:10110000FF920F931F937B019A010027F7FC009534
:10111000102FB801A7010E943F081F910F91FF9067
:10112000EF9008950E948D070895EF92FF920F931C
:101130001F937C010E948D078C01C7010E946D07DF
:10114000080F191FC8011F910F91FF90EF9008958C
:10115000629FD001739FF001829FE00DF11D649F9B
:10116000E00DF11D929FF00D839FF00D749FF00D27
:10117000659FF00D9927729FB00DE11DF91F639FC8
:10118000B00DE11DF91FBD01CF0111240895A1E2A9
:101190001A2EAA1BBB1BFD010DC0AA1FBB1FEE1FF1
:1011A000FF1FA217B307E407F50720F0A21BB30B3C
:1011B000E40BF50B661F771F881F991F1A9469F7B8
:1011C00060957095809590959B01AC01BD01CF0114
:1011D0000895EE0FFF1F0590F491E02D09942F92D2
:1011E0003F924F925F926F927F928F929F92AF92B7
:1011F000BF92CF92DF92EF92FF920F931F93CF9304
:10120000DF93CDB7DEB7CA1BDB0B0FB6F894DEBF9A
:101210000FBECDBF09942A88398848885F846E84C0
:101220007D848C849B84AA84B984C884DF80EE800A
:10123000FD800C811B81AA81B981CE0FD11D0FB613
:10124000F894DEBF0FBECDBFED010895F894FFCF37
:1012500052656164696E6720454550524F4D2E2E90
:101260002E006164647220003A00706F72743A005C
:1012700049443A00416C61726D2043656E74657239
:101280003A0053657276657220416464723A005385
:10129000657276657220506174683A00543A25642C
:1012A0002C483A25642C583A25642C593A25642C4C
:1012B00052543A25642C503A25642C535652503AD5
:1012C000257300303030303500313036353530322E
:1012D0003430383033303134363433003132312E1B
:1012E0003139392E31372E313630002F6163632F7B
:1012F000736572766963652F64697370617463687E
:10130000657200235F2D2D05000000009C06430739
:081310003206630643068C0659
:00000001FF
